{
  "contractName": "Election",
  "abi": [
    {
      "constant": true,
      "inputs": [],
      "name": "candidatesCount",
      "outputs": [
        {
          "name": "",
          "type": "uint256"
        }
      ],
      "payable": false,
      "stateMutability": "view",
      "type": "function"
    },
    {
      "constant": true,
      "inputs": [
        {
          "name": "",
          "type": "uint256"
        }
      ],
      "name": "candidates",
      "outputs": [
        {
          "name": "id",
          "type": "uint256"
        },
        {
          "name": "name",
          "type": "string"
        },
        {
          "name": "voteCount",
          "type": "uint256"
        },
        {
          "name": "party",
          "type": "string"
        }
      ],
      "payable": false,
      "stateMutability": "view",
      "type": "function"
    },
    {
      "constant": true,
      "inputs": [],
      "name": "voteTotal",
      "outputs": [
        {
          "name": "",
          "type": "uint256"
        }
      ],
      "payable": false,
      "stateMutability": "view",
      "type": "function"
    },
    {
      "constant": true,
      "inputs": [
        {
          "name": "",
          "type": "address"
        }
      ],
      "name": "voters",
      "outputs": [
        {
          "name": "",
          "type": "bool"
        }
      ],
      "payable": false,
      "stateMutability": "view",
      "type": "function"
    },
    {
      "inputs": [],
      "payable": false,
      "stateMutability": "nonpayable",
      "type": "constructor"
    },
    {
      "anonymous": false,
      "inputs": [
        {
          "indexed": false,
          "name": "indexed_candidateId",
          "type": "uint256"
        }
      ],
      "name": "addCandidateEvent",
      "type": "event"
    },
    {
      "anonymous": false,
      "inputs": [
        {
          "indexed": false,
          "name": "indexed_candidateId",
          "type": "uint256"
        }
      ],
      "name": "votedEvent",
      "type": "event"
    },
    {
      "constant": false,
      "inputs": [
        {
          "name": "_name",
          "type": "string"
        },
        {
          "name": "_party",
          "type": "string"
        }
      ],
      "name": "addCandidate",
      "outputs": [],
      "payable": false,
      "stateMutability": "nonpayable",
      "type": "function"
    },
    {
      "constant": false,
      "inputs": [
        {
          "name": "_candidateId",
          "type": "uint256"
        }
      ],
      "name": "vote",
      "outputs": [],
      "payable": false,
      "stateMutability": "nonpayable",
      "type": "function"
    }
  ],
  "bytecode": "0x608060405234801561001057600080fd5b5061095d806100206000396000f300608060405260043610610078576000357c0100000000000000000000000000000000000000000000000000000000900463ffffffff1680630121b93f1461007d57806326541b56146100aa5780632d35a8a2146101595780633477ee2e146101845780633e808c90146102a4578063a3ec138d146102cf575b600080fd5b34801561008957600080fd5b506100a86004803603810190808035906020019092919050505061032a565b005b3480156100b657600080fd5b50610157600480360381019080803590602001908201803590602001908080601f0160208091040260200160405190810160405280939291908181526020018383808284378201915050505050509192919290803590602001908201803590602001908080601f0160208091040260200160405190810160405280939291908181526020018383808284378201915050505050509192919290505050610587565b005b34801561016557600080fd5b5061016e610700565b6040518082815260200191505060405180910390f35b34801561019057600080fd5b506101af60048036038101908080359060200190929190505050610706565b604051808581526020018060200184815260200180602001838103835286818151815260200191508051906020019080838360005b838110156101ff5780820151818401526020810190506101e4565b50505050905090810190601f16801561022c5780820380516001836020036101000a031916815260200191505b50838103825284818151815260200191508051906020019080838360005b8381101561026557808201518184015260208101905061024a565b50505050905090810190601f1680156102925780820380516001836020036101000a031916815260200191505b50965050505050505060405180910390f35b3480156102b057600080fd5b506102b9610866565b6040518082815260200191505060405180910390f35b3480156102db57600080fd5b50610310600480360381019080803573ffffffffffffffffffffffffffffffffffffffff16906020019092919050505061086c565b604051808215151515815260200191505060405180910390f35b600260003373ffffffffffffffffffffffffffffffffffffffff1673ffffffffffffffffffffffffffffffffffffffff16815260200190815260200160002060009054906101000a900460ff16151515610412576040517f08c379a00000000000000000000000000000000000000000000000000000000081526004018080602001828103825260238152602001807f566f746520616c726561647920636173742066726f6d2074686973206164647281526020017f657373000000000000000000000000000000000000000000000000000000000081525060400191505060405180910390fd5b60008111801561042457506001548111155b15156104be576040517f08c379a000000000000000000000000000000000000000000000000000000000815260040180806020018281038252602a8152602001807f43616e646964617465204944206973206e6f7420696e2072616e6765206f662081526020017f63616e646964617465730000000000000000000000000000000000000000000081525060400191505060405180910390fd5b6001600260003373ffffffffffffffffffffffffffffffffffffffff1673ffffffffffffffffffffffffffffffffffffffff16815260200190815260200160002060006101000a81548160ff021916908315150217905550600080828152602001908152602001600020600201600081548092919060010191905055506003600081548092919060010191905055507ffff3c900d938d21d0990d786e819f29b8d05c1ef587b462b939609625b684b16816040518082815260200191505060405180910390a150565b6000600354141515610627576040517f08c379a00000000000000000000000000000000000000000000000000000000081526004018080602001828103825260318152602001807f43616e6e6f74207375626d69742063616e64696461746520616674657220666981526020017f72737420766f7465207265636f7264656400000000000000000000000000000081525060400191505060405180910390fd5b60016000815480929190600101919050555060806040519081016040528060015481526020018381526020016000815260200182815250600080600154815260200190815260200160002060008201518160000155602082015181600101908051906020019061069892919061088c565b506040820151816002015560608201518160030190805190602001906106bf92919061088c565b509050507f256327ff1553bea8de188ecb0e6c936206cd7bd2f2a6ee189faed299944a03c56001546040518082815260200191505060405180910390a15050565b60015481565b6000602052806000526040600020600091509050806000015490806001018054600181600116156101000203166002900480601f0160208091040260200160405190810160405280929190818152602001828054600181600116156101000203166002900480156107b85780601f1061078d576101008083540402835291602001916107b8565b820191906000526020600020905b81548152906001019060200180831161079b57829003601f168201915b505050505090806002015490806003018054600181600116156101000203166002900480601f01602080910402602001604051908101604052809291908181526020018280546001816001161561010002031660029004801561085c5780601f106108315761010080835404028352916020019161085c565b820191906000526020600020905b81548152906001019060200180831161083f57829003601f168201915b5050505050905084565b60035481565b60026020528060005260406000206000915054906101000a900460ff1681565b828054600181600116156101000203166002900490600052602060002090601f016020900481019282601f106108cd57805160ff19168380011785556108fb565b828001600101855582156108fb579182015b828111156108fa5782518255916020019190600101906108df565b5b509050610908919061090c565b5090565b61092e91905b8082111561092a576000816000905550600101610912565b5090565b905600a165627a7a72305820c74300489d3b8cdfe4f560fc920b18cc6fa8fd3db548ed4d0adc064d264624740029",
  "source": "pragma solidity 0.4.24;\n\ncontract Election {\n    // Constructor\n    constructor() public {}\n\n    struct Candidate {\n        uint id;\n        string name;\n        uint voteCount;\n        string party;\n    }\n\n    // Read/write Candidates\n    mapping(uint => Candidate) public candidates;\n\n    // Store Candidates Count\n    uint public candidatesCount;\n\n\n    function addCandidate(string _name, string _party) public {\n        require(voteTotal == 0, \"Cannot submit candidate after first vote recorded\");\n\n        candidatesCount++;\n        candidates[candidatesCount] = Candidate(candidatesCount, _name, 0, _party);\n\n        emit addCandidateEvent(candidatesCount);\n    }\n\n    event addCandidateEvent (uint indexed_candidateId);\n\n    // Read/write voters\n    mapping(address => bool) public voters;\n\n    uint public voteTotal;\n\n    // vote takes candidate id, \n    function vote(uint _candidateId) public {\n        // require that they haven't voted before\n        require(!voters[msg.sender], \"Vote already cast from this address\");\n\n        // require a valid candidate, making sure their index is in mapping\n        require(_candidateId > 0 && _candidateId <= candidatesCount, \"Candidate ID is not in range of candidates\");\n\n        // record that voter has voted, making their address key true\n        voters[msg.sender] = true;\n\n        // update candidate vote Count, for matched id, based on key\n        candidates[_candidateId].voteCount++;\n        voteTotal++;\n\n        // trigger voted event\n        emit votedEvent(_candidateId);\n    }\n\n    event votedEvent (uint indexed_candidateId);\n}",
  "sourcePath": "/Users/Giancarlo/Projects/voting-dapp/contracts/Election.sol",
  "compiler": {
    "name": "solc",
    "version": "0.4.24+commit.e67f0147.Emscripten.clang"
  },
  "schemaVersion": "2.0.1",
  "updatedAt": "2018-09-28T03:51:13.335Z"
}